S00E000061767263616E2E737265639B
S113000012C100002EC100002CC100002AC1000052
S113001028C1000026C1000024C1000022C1000044
S113002020C100001EC100001CC100001AC1000054
S113003018C1000016C1000014C1000012C1000064
S113004021C6000029C600000DC100000AC100003D
S113005008C100000C941A0904C1000002C1000088
S113006000C10000FEC00000FCC00000FAC0000097
S1130070F8C00000F6C00000F4C00000F2C00000A8
S1130080F0C00000EEC00000ECC000000C94770843
S1130090E8C0000065086B086B086B086B086B0808
S11300A06B086B0896066B086B086B086B086B088B
S11300B06B086B0896066B086B086B086B086B087B
S11300C06B086B08AA066B086B086B086B086B0857
S11300D06B086B085B076B086B086B086B086B0895
S11300E06B086B08AA066B086B086B086B086B0837
S11300F06B086B08E7066B086B086B086B086B08EA
S11301006B086B085D086B086B086B086B086B0861
S11301106B086B08EF066B086B086B086B086B08C1
S11301206B086B085B076B086B086B086B086B0844
S11301306B086B08F7066B086B086B086B086B0899
S11301406B086B085B076B086B086B086B086B0824
S11301506B086B086B076B086B086B086B086B0804
S11301606B086B0863076B086B086B086B086B08FC
S11301706B086B086B076B086B086B086B086B08E4
S11301806B086B0863076B086B086B086B086B08DC
S11301906B086B0880076B086B086B086B086B08AF
S11301A06B086B08CA076B086B086B086B086B0855
S11301B06B086B0880076B086B086B086B086B088F
S11301C06B086B08CA076B086B086B086B086B0835
S11301D06B086B08BD076B086B086B086B086B0832
S11301E06B086B08D2076B086B086B086B086B080D
S11301F06B086B08D2076B086B086B086B086B08FD
S11302006B086B08EC076B086B086B086B086B08D2
S11302106B086B08CA076B086B086B086B086B08E4
S11302206B086B085C0711241FBECFEFD0E1DEBF63
S1130230CDBF12E0A0E0B1E0E2EEF3E100E00BBFDD
S113024002C007900D92AC33B107D9F722E0ACE3BA
S1130250B2E001C01D92AD3BB207E1F740D20C946D
S1130260EF09CECE1F920F920FB60F9211240BB648
S11302700F922F933F934F935F936F937F938F933B
S11302809F93AF93BF93EF93FF9381E0DBD18ED124
S113029080E0D8D1FF91EF91BF91AF919F918F9161
S11302A07F916F915F914F913F912F910F900BBE72
S11302B00F900FBE0F901F901895CF92DF92EF9280
S11302C00F931F936FD07FD10F2EFAE0CF2ED12C36
S11302D0F02DEE24E3940FEF17E024E932E048E038
S11302E062E080E075D128E831E048E062E081E036
S11302F06FD121E031E048E062E082E069D143E17E
S113030061E080E006D44DE161E081E002D44BE29B
S113031061E082E0FED3EBEDF0E0808180628083D7
S113032081E080933C021F910F91EF90DF90CF907A
S113033008958091F3002091F20090E0880F991FB6
S1130340880F991F880F991F229526952770820F71
S1130350911D08959C0136952795369527953695D8
S113036027952093F3008295880F807E8093F20076
S113037008959C01369527953695279536952795AA
S11303802093F7008295880F807E8093F60008956D
S1130390E9EFF0E08081208190E0982F8827820F98
S11303A0911D0895CF93DF93E8EDF0E080818160A3
S11303B0808380818D7F808380E0CDEED0E0AFEEBE
S11303C0B0E0EEEEF0E0982F9295907F98831C9227
S11303D010828F5F8F30B9F786E08093E20084E06B
S11303E08093E30083E18093E400E8EDF0E0808112
S11303F08D7F8083DF91CF910895883070F0EFED89
S1130400F0E0208170E0AB0102C0440F551F8A95D3
S1130410E2F7CA01822B80830895EEEDF0E020819B
S113042070E0AB0102C0440F551F8A95E2F7CA0180
S1130430822B80830895EFEEF0E0208130E4839FE7
S1130440C0011124822B808308951F93CF93DF93DF
S1130450C42FD22F132FEBEDF0E090819F7D90837A
S11304604930C8F48295807F8093ED00EFEEF0E090
S11304708081842B8083CB016DDFCC2371F09D2F91
S1130480ED2FF12FAAEFB0E081918C938E2F891B71
S11304908C17D0F304C081E003C080E001C080E089
S11304A0EBEDF0E0908190629083DF91CF911F910A
S11304B00895DF92EF92FF920F931F93CF93DF93F0
S11304C0F82ED42EE9016130A9F0623021F582952D
S11304D0807F8093ED0082E0AEDFEFEEF0E080817C
S11304E0D82AD082CE0136DFC80143DF6E2D8F2D8E
S11304F084DF11C0FF0CFF0CFF0CFF0CF092ED0029
S113050081E099DFEFEEF0E08081D82AD082CE013D
S113051021DFC8012EDFDF91CF911F910F91FF9052
S1130520EF90DF900895FF920F931F93CF93DF9383
S1130530982F9295907F9093ED009091EF009F708B
S1130540F92E082F10E096E1899FE0011124C85884
S1130550DD4FF886EEDE9F838E831ADF9B8B8A8BBA
S1130560FF20B9F020E0CDEED0E0AAEFB0E036E114
S1130570309FC001319F900D112488589D4F4881B0
S11305803C914770FC01E40FF11D31872F5F2F115F
S1130590F6CFEEEEF0E080818F7980831092EF0049
S11305A0DF91CF911F910F91FF9008958091EC00FE
S11305B082958F708093770280917702B4DF81E017
S11305C08093BB0208951092BB021092BC0208955E
S11305D0CF92DF92EF920F931F9396E1899FF001E0
S11305E01124E858FD4F808361834087D58AC48AEB
S11305F03783268314830383E5825BDF1F910F9186
S1130600EF90DF90CF9008958330D8F4482F50E0D6
S113061096E1899FF0011124E858FD4F81818130D2
S113062081F486E1849F9001859F300D1124F901A6
S1130630E858FD4F40856681778180812F573D4F73
S113064004CF08958093BA02089526E1829FC001E1
S11306501124FC01E258FD4F80E1DB0101900D9271
S11306608A95E1F7089526E1829FC0011124FC01D7
S1130670E858FD4F86E1DB0101900D928A95E1F780
S11306800895CF93DF93CBEDD0E098819F7D98833D
S113069098819F7E988326E1829FC0011124DC010A
S11306A0A858BD4F86E1FB0101900D928A95E1F7B0
S11306B0888180628883888180618883DF91CF917B
S11306C0089587E079D687E03FD502D000000895E9
S11306D00D9A159A0F9A179A0E9A169A0895F1DFA1
S11306E0ECDD20E048E469E380E0E0D281E0FFD281
S11306F0EBEDF0E0808180688083E8EDF0E08081BC
S11307008260808316D278941FD254D6FDCF80E0C5
S11307107BCF089581E078CF089582E075CF089566
S113072083E072CF089584E06FCF089585E06CCFA5
S1130730089586E069CF089587E066CF089588E03C
S113074063CF089589E060CF08958AE05DCF08956E
S11307508BE05ACF08958CE057CF08958DE054CFA5
S113076008958EE051CF08958FE04ECF0895CF9332
S1130770DF93DB01EDE3F2E02FE0EF0119922A951C
S1130780E9F74FE050E060E070E04D935D936D93C6
S11307907C931397DC01ED93FC93DF91CF91089543
S11307A0CF93DF93DB01EDE3F2E02FE0EF01199249
S11307B02A95E9F74FE050E060E070E04D935D93D7
S11307C06D937C931397DC01ED93FC93DF91CF91B0
S11307D00895CF93DF931F92CDB7DEB789839981B4
S11307E092959F709A5081E0923008F080E00F90CB
S11307F0DF91CF9108950097A9F0211531054105A6
S1130800510551F0FC01280F391F90E08191980F98
S1130810E217F307D9F701C090E081E0961719F0C9
S113082080E0089580E00895BF92CF92DF92EF9226
S1130830FF920F931F93CF93DF93CDB7DEB76697E5
S11308400FB6F894DEBF0FBECDBF8C016A017B01E9
S1130850FC0180818F70B82EF2E0F81798F14115F1
S113086051056105710571F1BE016F5F7F4FFBDEBC
S1130870A70196012150310941095109F801E20FFC
S1130880F31F6081C801B7DF8823B9F0F8018181C3
S113089090E0982F88272281822B98878F838381E9
S11308A08987848590E09E8B8D8B349688E0DE0169
S11308B01A9601900D928A95E1F7BE016F5F7F4F02
S11308C08B2DDFDE66960FB6F894DEBF0FBECDBF6C
S11308D0DF91CF911F910F91FF90EF90DF90CF9018
S11308E0BF900895CF92DF92EF92FF92CF93DF9360
S11308F0EC016A017B01009711F141155105610575
S11309007105E9F09A01AB012150310941095109FE
S1130910FC01E20FF31F60816EDF882381F0988170
S1130920892F82958F708A3021F49F7090930001F3
S113093006C08B3021F4B701A601CE0175DFDF912B
S1130940CF91FF90EF90DF90CF900895009779F0CA
S1130950411551056105710561F0FC01480F591FEE
S113096080E09191890FE417F507D9F7089580E0A5
S1130970089580E00895CF93DF93EC01009741F14F
S11309806115710539F1452B39F1809100018F70A2
S1130990806B8883FB018181898380818A83828142
S11309A08B83DE011496339689E001900D928A952B
S11309B0E1F7FB0186858C874DE050E060E070E054
S11309C0CE01C4DF8D8783E0809300016EE005C013
S11309D060E003C060E001C060E070E080E090E0AF
S11309E0DF91CF9108950F931F93CF93DF93CDB7EA
S11309F0DEB7A6970FB6F894DEBF0FBECDBF8C014D
S1130A0080910001833000F5BE016F5F7F4F1DDED2
S1130A10BE016F5E7F4F8091000125DE4B8150E067
S1130A2060E070E04C5F5F4F6F4F7F4F4F30510578
S1130A306105710568F4AE014F5E5F4FBE016F5FE3
S1130A407F4FC80198DF07C060E070E0CB0103C0AE
S1130A5060E070E0CB01A6960FB6F894DEBF0FBE3F
S1130A60CDBFDF91CF911F910F910895CF92DF9267
S1130A70EF92FF920F931F93CF93DF938B01EA01C1
S1130A80188219821A821B820097D1F161157105AF
S1130A90B9F1FC0120812F7081E090E0A0E0B0E08A
S1130AA088839983AA83BB83822F806DFB01808313
S1130AB088819981AA81BB81AC01BD014F5F5F4FE1
S1130AC06F4F7F4F488359836A837B83E80FF91FF5
S1130AD021E02083C880D980EA80FB80B701A60189
S1130AE0C80134DFB701A6014F5F5F4F6F4F7F4FDF
S1130AF0488359836A837B83F801EC0DFD1D808351
S1130B00DF91CF911F910F91FF90EF90DF90CF90E5
S1130B10089527E0829FC0011124FC01EF5FFE4F7E
S1130B20608350E0440F551F4F585E4F52834183FA
S1130B30089541E062E085E07CD08DE496D080E0C9
S1130B4092D081E094C008954F925F926F927F9209
S1130B508F929F92AF92BF92CF92DF92EF92FF92C9
S1130B600F931F93CF93DF937BD081FD51C085D02A
S1130B70882309F44DC084D0C1E0D1E005E011E040
S1130B800F2EF4E0EF2EF1E0FF2EF02D0F2EF5E7FF
S1130B90AF2EF1E0BF2EF02D712C66246394512CFE
S1130BA08881882361F16801D8019C914701D701AC
S1130BB08C91882351F0813079F4E981FA81762C83
S1130BC02181921748F4752C07C0E981FA81762CAB
S1130BD02081921708F4752C772071F0462C81112E
S1130BE0452C442031F0D6011196ED91FC911297D9
S1130BF00995F4014082952D9F5FD6019C93279619
S1130C00095F1F4FB7E0EB0EF11C0A151B0541F6F7
S1130C10DF91CF911F910F91FF90EF90DF90CF90D4
S1130C20BF90AF909F908F907F906F905F904F9008
S1130C300895877090E1499FA001112440736330A7
S1130C4031F0623031F0613031F490E405C098E461
S1130C5003C098E001C090E0482B492B44BD08959F
S1130C6080916E00089586BD089587BD0895811111
S1130C7002C027980895279A089585B3827008952D
S1130C80A99A08951F920F920FB60F9211240F90F4
S1130C900FBE0F901F9018951F920F920FB60F92D0
S1130CA011240F900FBE0F901F90189590E0109292
S1130CB04C022093B9004093B800662319F0609366
S1130CC0BA0003C029E32093BA00882331F0EAEB89
S1130CD0F0E080818160808305C0EAEBF0E08081F0
S1130CE08E7F8083946090649093BC000895ECEBB5
S1130CF0F0E0908180FB90F9906890830895CF9202
S1130D00DF92EF92FF920F931F93CF93DF93D091D3
S1130D10B900D87FC091BC004D2F50E0493C51052B
S1130D2008F0D9C1FA01E65BFF4F53C31092550294
S1130D30109256021092570210925802809161024A
S1130D408093BB00C460CF7DCF7EC06881E0809378
S1130D504C02C1C140915502509156026091570214
S1130D60709158020091590210915A0220915B022D
S1130D7030915C02401751076207730700F58091B8
S1130D805F02909160028A019B010F5F1F4F2F4FFA
S1130D903F4F00935502109356022093570230930D
S1130DA05802FC01E40FF51F80818093BB00C460EE
S1130DB0CF7DCF7EC06881E080934C028CC11092BD
S1130DC04C02C460CF7DC061C064C06884C1C4608B
S1130DD0CF7DC061C064C06810924C027CC1C46005
S1130DE0CF7DCF7EC06881E080934C0274C10091B6
S1130DF0590210915A0220915B0230915C02409199
S1130E005502509156026091570270915802680140
S1130E10790181E0C81AD108E108F1084C155D0593
S1130E206E057F0508F580915F02909160028A014A
S1130E309B010F5F1F4F2F4F3F4F0093550210939D
S1130E40560220935702309358022091BB00FC01B4
S1130E50E40FF51F2083C460CF7DCF7EC064C068DB
S1130E6081E080934C0237C1401751076207730732
S1130E7008F031C180915F02909160028A019B0168
S1130E800F5F1F4F2F4F3F4F009355021093560291
S1130E9020935702309358022091BB00FC01E40FC9
S1130EA0F51F2083C460CF7DCF7ECF7BC06881E0F7
S1130EB080934C0210C1C061C460CF7DC064C0681F
S1130EC010924C0208C1C460CF7EC064C06881E047
S1130ED080934C0200C1C460CF7EC064C06810928D
S1130EE04D0210924E0210924F021092500261E590
S1130EF072E08DE592E03BDC81E080934C02EBC034
S1130F0040914D0250914E0260914F0270915002F7
S1130F1000915102109152022091530230915402D7
S1130F20401751076207730700F580915D029091A5
S1130F305E028A019B010F5F1F4F2F4F3F4F0093AB
S1130F404D0210934E0220934F0230935002209191
S1130F50BB00FC01E40FF51F2083C460CF7EC06496
S1130F60C06881E080934C02B6C0C460CF7ECF7B62
S1130F70C06881E080934C02AEC040914D02509114
S1130F804E0260914F027091500280915D029091E7
S1130F905E02A8DCC460CF7DCF7EC064C0681092BE
S1130FA04C0299C010924D0210924E0210924F02C0
S1130FB01092500261E572E08DE592E0F1DB8091E0
S1130FC05D0290915E020FDD6093510270935202B4
S1130FD080935302909354024091510250915202D3
S1130FE060915302709154024115510561057105D8
S1130FF009F459C000914D0210914E0220914F0204
S1131000309150026A017B0181E0C81AD108E108DD
S1131010F1080C151D052E053F0500F580915D02B4
S113102090915E02B901A8014F5F5F4F6F4F7F4FF0
S113103040934D0250934E0260934F0270935002BE
S1131040FC01E00FF11F80818093BB00C460CF7E60
S1131050C064C06881E080934C023DC0041715074A
S11310602607370700F580915D0290915E02B90171
S1131070A8014F5F5F4F6F4F7F4F40934D025093D6
S11310804E0260934F0270935002FC01E00FF11F77
S113109080818093BB00C460CF7ECF7BC06881E039
S11310A080934C0218C01092BB00C460CF7ECF7BEB
S11310B0C06881E080934C020EC0C460CF7DCF7EB7
S11310C0C068C06410924C0206C0CF7DC061C06489
S11310D0C06810924C02C093BC008D2FDF91CF9159
S11310E01F910F91FF90EF90DF90CF9008951F9282
S11310F00F920FB60F9211240BB60F922F933F93BA
S11311004F935F936F937F938F939F93AF93BF930B
S1131110EF93FF93F4DDFF91EF91BF91AF919F9116
S11311208F917F916F915F914F913F912F910F908C
S11311300BBE0F900FBE0F901F901895E1ECF0E0DE
S11311408081806880830895699A689890E0FC01A2
S1131150EE0FFF1FE80FF91FEF5EFD4F80819181B5
S11311609093C5008093C40088E18093C10086E019
S11311708093C2006FE672E08091750290917602CE
S11311800FDB6BE672E08091730290917402EFDAE8
S113119010926702109268021092690210926A0219
S11311A01092630210926402109265021092660219
S11311B010926202C3CF08958091C00088231CF46A
S11311C08091C600089580E00895E0ECF0E09081FD
S11311D095FFFDCF8093C60008958F929F92AF92A2
S11311E0BF92CF92DF92EF92FF92CF93DF934A01A7
S11311F05B01411551056105710589F0C82FD92F8F
S1131200C12CD12C76018991E0DF8FEFC81AD80A5E
S1131210E80AF80AC814D904EA04FB04A1F7DF9128
S1131220CF91FF90EF90DF90CF90BF90AF909F90C1
S11312308F9008951F920F920FB60F9211240BB640
S11312400F920F931F932F933F934F935F936F933B
S11312507F938F939F93AF93BF93CF93EF93FF931A
S1131260ABDFC82F80916202811134C06FE672E057
S113127085E792E095DA6BE672E083E792E077DA4D
S11312808091730290917402892B09F47DC040917E
S11312906B0250916C0260916D0270916E02452B4D
S11312A0462B472B09F05DC06FC081E0809362023A
S11312B0E0917302F091740241E050E060E070E06C
S11312C040936302509364026093650270936602D4
S11312D0C0835AC08091730290917402009709F4FC
S11312E03DC000916B0210916C0220916D0230910F
S11312F06E020115110521053105C1F52FC08A01C2
S11313009B010F5F1F4F2F4F3F4F009363021093BA
S113131064022093650230936602FC01E40FF51F1A
S1131320C08332C081DA10926202609175027091BA
S1131330760247E652E0809173029091740296DB44
S113134040916702509168026091690270916A024B
S1131350809175029091760240DF16C0109262026D
S113136013C08C2F36DA882379F09FCF4091630223
S113137050916402609165027091660240175107B2
S11313806207730778F6BBCFFF91EF91CF91BF91BE
S1131390AF919F918F917F916F915F914F913F9109
S11313A02F911F910F910F900BBE0F900FBE0F90B6
S11313B01F901895A89508958770886028E130E0FB
S11313C00FB6F894A895209360000FBE8093600038
S11313D00895EE0FFF1F0590F491E02D0994F89401
S10513E0FFCF39
S11313E2030071010000870300710100008A0300F9
S11313F2710100008D03007101000090030071016E
S113140200009303007101000096030071010000C3
S1131412990300710100009C0300710100009F0305
S11314220071010000A2030071010000A503007114
S1131432010000A8030071010000AB030071010068
S113144200AE030071010000B1030071010000B499
S11314520300000101010202020203030303040464
S11314620404050505050606060607070707080816
S11314720808090909090A0A0A0A0B0B0B0B0C0CC6
S11314820C0C0D0D0D0D0E0E0E0E0F0F0F0F101076
S11314921010111111111212121213131313141426
S11314A214141515151516161616171717171818D6
S11314B21818191919191A1A1A1A1B1B1B1B1C1C86
S11314C21C1C1D1D1D1D1E1E1E1E1F1F1F1F202036
S11314D220202121212122222222232323232424E6
S11314E22424252525252626262627272727282896
S11314F228A00100CF000067000044000033000070
S11315022200001900001000000C00000800000373
S10F1512000003000001000000000000C5
S9030000FC
